{
  "contractName": "DividendDistributor",
  "abi": [
    {
      "inputs": [
        {
          "internalType": "address",
          "name": "_router",
          "type": "address"
        }
      ],
      "stateMutability": "nonpayable",
      "type": "constructor"
    },
    {
      "inputs": [],
      "name": "dividendsPerShare",
      "outputs": [
        {
          "internalType": "uint256",
          "name": "",
          "type": "uint256"
        }
      ],
      "stateMutability": "view",
      "type": "function"
    },
    {
      "inputs": [],
      "name": "dividendsPerShareAccuracyFactor",
      "outputs": [
        {
          "internalType": "uint256",
          "name": "",
          "type": "uint256"
        }
      ],
      "stateMutability": "view",
      "type": "function"
    },
    {
      "inputs": [],
      "name": "minDistribution",
      "outputs": [
        {
          "internalType": "uint256",
          "name": "",
          "type": "uint256"
        }
      ],
      "stateMutability": "view",
      "type": "function"
    },
    {
      "inputs": [],
      "name": "minPeriod",
      "outputs": [
        {
          "internalType": "uint256",
          "name": "",
          "type": "uint256"
        }
      ],
      "stateMutability": "view",
      "type": "function"
    },
    {
      "inputs": [
        {
          "internalType": "address",
          "name": "",
          "type": "address"
        }
      ],
      "name": "shares",
      "outputs": [
        {
          "internalType": "uint256",
          "name": "amount",
          "type": "uint256"
        },
        {
          "internalType": "uint256",
          "name": "totalExcluded",
          "type": "uint256"
        },
        {
          "internalType": "uint256",
          "name": "totalRealised",
          "type": "uint256"
        }
      ],
      "stateMutability": "view",
      "type": "function"
    },
    {
      "inputs": [],
      "name": "totalDistributed",
      "outputs": [
        {
          "internalType": "uint256",
          "name": "",
          "type": "uint256"
        }
      ],
      "stateMutability": "view",
      "type": "function"
    },
    {
      "inputs": [],
      "name": "totalDividends",
      "outputs": [
        {
          "internalType": "uint256",
          "name": "",
          "type": "uint256"
        }
      ],
      "stateMutability": "view",
      "type": "function"
    },
    {
      "inputs": [],
      "name": "totalShares",
      "outputs": [
        {
          "internalType": "uint256",
          "name": "",
          "type": "uint256"
        }
      ],
      "stateMutability": "view",
      "type": "function"
    },
    {
      "inputs": [
        {
          "internalType": "uint256",
          "name": "_minPeriod",
          "type": "uint256"
        },
        {
          "internalType": "uint256",
          "name": "_minDistribution",
          "type": "uint256"
        }
      ],
      "name": "setDistributionCriteria",
      "outputs": [],
      "stateMutability": "nonpayable",
      "type": "function"
    },
    {
      "inputs": [
        {
          "internalType": "address",
          "name": "shareholder",
          "type": "address"
        },
        {
          "internalType": "uint256",
          "name": "amount",
          "type": "uint256"
        }
      ],
      "name": "setShare",
      "outputs": [],
      "stateMutability": "nonpayable",
      "type": "function"
    },
    {
      "inputs": [],
      "name": "deposit",
      "outputs": [],
      "stateMutability": "payable",
      "type": "function"
    },
    {
      "inputs": [
        {
          "internalType": "uint256",
          "name": "gas",
          "type": "uint256"
        }
      ],
      "name": "process",
      "outputs": [],
      "stateMutability": "nonpayable",
      "type": "function"
    },
    {
      "inputs": [],
      "name": "claimDividend",
      "outputs": [],
      "stateMutability": "nonpayable",
      "type": "function"
    },
    {
      "inputs": [
        {
          "internalType": "address",
          "name": "shareholder",
          "type": "address"
        }
      ],
      "name": "getUnpaidEarnings",
      "outputs": [
        {
          "internalType": "uint256",
          "name": "",
          "type": "uint256"
        }
      ],
      "stateMutability": "view",
      "type": "function"
    }
  ],
  "bytecode": "0x608060405273b27adaffb9fea1801459a1a81b17218288c097cc600160006101000a81548173ffffffffffffffffffffffffffffffffffffffff021916908373ffffffffffffffffffffffffffffffffffffffff16021790555073bb4cdb9cbd36b01bd1cbaebf2de08d9173bc095c600260006101000a81548173ffffffffffffffffffffffffffffffffffffffff021916908373ffffffffffffffffffffffffffffffffffffffff1602179055506ec097ce7bc90715b34b9f1000000000600c55610a8c600d55670de0b6b3a7640000600e553480156100df57600080fd5b506040516119d13803806119d18339818101604052602081101561010257600080fd5b8101908080519060200190929190505050600073ffffffffffffffffffffffffffffffffffffffff168173ffffffffffffffffffffffffffffffffffffffff1614156101625773d99d1c33f9fc3444f8101754abc46c52416550d1610164565b805b600360006101000a81548173ffffffffffffffffffffffffffffffffffffffff021916908373ffffffffffffffffffffffffffffffffffffffff160217905550336000806101000a81548173ffffffffffffffffffffffffffffffffffffffff021916908373ffffffffffffffffffffffffffffffffffffffff160217905550506117dd806101f46000396000f3fe6080604052600436106100dd5760003560e01c8063ce7c2ac21161007f578063efca2eed11610059578063efca2eed1461033b578063f0fc6bca14610366578063ffb2c4791461037d578063ffd49c84146103b8576100dd565b8063ce7c2ac214610293578063d0e30db014610306578063e2d2e21914610310576100dd565b80632d48e896116100bb5780632d48e896146101cd5780633a98ef39146102125780634fab0ae81461023d578063997664d714610268576100dd565b806311ce023d146100e257806314b6ca961461010d57806328fd319814610168575b600080fd5b3480156100ee57600080fd5b506100f76103e3565b6040518082815260200191505060405180910390f35b34801561011957600080fd5b506101666004803603604081101561013057600080fd5b81019080803573ffffffffffffffffffffffffffffffffffffffff169060200190929190803590602001909291905050506103e9565b005b34801561017457600080fd5b506101b76004803603602081101561018b57600080fd5b81019080803573ffffffffffffffffffffffffffffffffffffffff1690602001909291905050506106a8565b6040518082815260200191505060405180910390f35b3480156101d957600080fd5b50610210600480360360408110156101f057600080fd5b8101908080359060200190929190803590602001909291905050506107c2565b005b34801561021e57600080fd5b5061022761082c565b6040518082815260200191505060405180910390f35b34801561024957600080fd5b50610252610832565b6040518082815260200191505060405180910390f35b34801561027457600080fd5b5061027d610838565b6040518082815260200191505060405180910390f35b34801561029f57600080fd5b506102e2600480360360208110156102b657600080fd5b81019080803573ffffffffffffffffffffffffffffffffffffffff16906020019092919050505061083e565b60405180848152602001838152602001828152602001935050505060405180910390f35b61030e610868565b005b34801561031c57600080fd5b50610325610ce3565b6040518082815260200191505060405180910390f35b34801561034757600080fd5b50610350610ce9565b6040518082815260200191505060405180910390f35b34801561037257600080fd5b5061037b610cef565b005b34801561038957600080fd5b506103b6600480360360208110156103a057600080fd5b8101908080359060200190929190505050610cfa565b005b3480156103c457600080fd5b506103cd610e74565b6040518082815260200191505060405180910390f35b600c5481565b60008054906101000a900473ffffffffffffffffffffffffffffffffffffffff1673ffffffffffffffffffffffffffffffffffffffff163373ffffffffffffffffffffffffffffffffffffffff161461044157600080fd5b6000600760008473ffffffffffffffffffffffffffffffffffffffff1673ffffffffffffffffffffffffffffffffffffffff1681526020019081526020016000206000015411156104965761049582610e7a565b5b6000811180156104e857506000600760008473ffffffffffffffffffffffffffffffffffffffff1673ffffffffffffffffffffffffffffffffffffffff16815260200190815260200160002060000154145b156104fb576104f682611140565b61055d565b60008114801561054d57506000600760008473ffffffffffffffffffffffffffffffffffffffff1673ffffffffffffffffffffffffffffffffffffffff16815260200190815260200160002060000154115b1561055c5761055b826111ef565b5b5b6105c6816105b8600760008673ffffffffffffffffffffffffffffffffffffffff1673ffffffffffffffffffffffffffffffffffffffff168152602001908152602001600020600001546008546113c890919063ffffffff16565b61141290919063ffffffff16565b60088190555080600760008473ffffffffffffffffffffffffffffffffffffffff1673ffffffffffffffffffffffffffffffffffffffff1681526020019081526020016000206000018190555061065e600760008473ffffffffffffffffffffffffffffffffffffffff1673ffffffffffffffffffffffffffffffffffffffff1681526020019081526020016000206000015461149a565b600760008473ffffffffffffffffffffffffffffffffffffffff1673ffffffffffffffffffffffffffffffffffffffff168152602001908152602001600020600101819055505050565b600080600760008473ffffffffffffffffffffffffffffffffffffffff1673ffffffffffffffffffffffffffffffffffffffff1681526020019081526020016000206000015414156106fd57600090506107bd565b600061074a600760008573ffffffffffffffffffffffffffffffffffffffff1673ffffffffffffffffffffffffffffffffffffffff1681526020019081526020016000206000015461149a565b90506000600760008573ffffffffffffffffffffffffffffffffffffffff1673ffffffffffffffffffffffffffffffffffffffff1681526020019081526020016000206001015490508082116107a5576000925050506107bd565b6107b881836113c890919063ffffffff16565b925050505b919050565b60008054906101000a900473ffffffffffffffffffffffffffffffffffffffff1673ffffffffffffffffffffffffffffffffffffffff163373ffffffffffffffffffffffffffffffffffffffff161461081a57600080fd5b81600d8190555080600e819055505050565b60085481565b600e5481565b60095481565b60076020528060005260406000206000915090508060000154908060010154908060020154905083565b60008054906101000a900473ffffffffffffffffffffffffffffffffffffffff1673ffffffffffffffffffffffffffffffffffffffff163373ffffffffffffffffffffffffffffffffffffffff16146108c057600080fd5b6000600160009054906101000a900473ffffffffffffffffffffffffffffffffffffffff1673ffffffffffffffffffffffffffffffffffffffff166370a08231306040518263ffffffff1660e01b8152600401808273ffffffffffffffffffffffffffffffffffffffff16815260200191505060206040518083038186803b15801561094b57600080fd5b505afa15801561095f573d6000803e3d6000fd5b505050506040513d602081101561097557600080fd5b810190808051906020019092919050505090506000600267ffffffffffffffff811180156109a257600080fd5b506040519080825280602002602001820160405280156109d15781602001602082028036833780820191505090505b509050600260009054906101000a900473ffffffffffffffffffffffffffffffffffffffff1681600081518110610a0457fe5b602002602001019073ffffffffffffffffffffffffffffffffffffffff16908173ffffffffffffffffffffffffffffffffffffffff1681525050600160009054906101000a900473ffffffffffffffffffffffffffffffffffffffff1681600181518110610a6e57fe5b602002602001019073ffffffffffffffffffffffffffffffffffffffff16908173ffffffffffffffffffffffffffffffffffffffff1681525050600360009054906101000a900473ffffffffffffffffffffffffffffffffffffffff1673ffffffffffffffffffffffffffffffffffffffff1663b6f9de953460008430426040518663ffffffff1660e01b815260040180858152602001806020018473ffffffffffffffffffffffffffffffffffffffff168152602001838152602001828103825285818151815260200191508051906020019060200280838360005b83811015610b66578082015181840152602081019050610b4b565b50505050905001955050505050506000604051808303818588803b158015610b8d57600080fd5b505af1158015610ba1573d6000803e3d6000fd5b50505050506000610c7e83600160009054906101000a900473ffffffffffffffffffffffffffffffffffffffff1673ffffffffffffffffffffffffffffffffffffffff166370a08231306040518263ffffffff1660e01b8152600401808273ffffffffffffffffffffffffffffffffffffffff16815260200191505060206040518083038186803b158015610c3557600080fd5b505afa158015610c49573d6000803e3d6000fd5b505050506040513d6020811015610c5f57600080fd5b81019080805190602001909291905050506113c890919063ffffffff16565b9050610c958160095461141290919063ffffffff16565b600981905550610cd8610cc7600854610cb984600c546114cc90919063ffffffff16565b61155290919063ffffffff16565b600b5461141290919063ffffffff16565b600b81905550505050565b600b5481565b600a5481565b610cf833610e7a565b565b60008054906101000a900473ffffffffffffffffffffffffffffffffffffffff1673ffffffffffffffffffffffffffffffffffffffff163373ffffffffffffffffffffffffffffffffffffffff1614610d5257600080fd5b600060048054905090506000811415610d6b5750610e71565b6000805a905060005b8483108015610d8257508381105b15610e6c5783600f5410610d99576000600f819055505b610ddb6004600f5481548110610dab57fe5b9060005260206000200160009054906101000a900473ffffffffffffffffffffffffffffffffffffffff1661159c565b15610e2357610e226004600f5481548110610df257fe5b9060005260206000200160009054906101000a900473ffffffffffffffffffffffffffffffffffffffff16610e7a565b5b610e48610e395a846113c890919063ffffffff16565b8461141290919063ffffffff16565b92505a9150600f600081548092919060010191905055508080600101915050610d74565b505050505b50565b600d5481565b6000600760008373ffffffffffffffffffffffffffffffffffffffff1673ffffffffffffffffffffffffffffffffffffffff168152602001908152602001600020600001541415610eca5761113d565b6000610ed5826106a8565b9050600081111561113b57610ef581600a5461141290919063ffffffff16565b600a81905550600160009054906101000a900473ffffffffffffffffffffffffffffffffffffffff1673ffffffffffffffffffffffffffffffffffffffff1663a9059cbb83836040518363ffffffff1660e01b8152600401808373ffffffffffffffffffffffffffffffffffffffff16815260200182815260200192505050602060405180830381600087803b158015610f8e57600080fd5b505af1158015610fa2573d6000803e3d6000fd5b505050506040513d6020811015610fb857600080fd5b81019080805190602001909291905050505042600660008473ffffffffffffffffffffffffffffffffffffffff1673ffffffffffffffffffffffffffffffffffffffff1681526020019081526020016000208190555061106381600760008573ffffffffffffffffffffffffffffffffffffffff1673ffffffffffffffffffffffffffffffffffffffff1681526020019081526020016000206002015461141290919063ffffffff16565b600760008473ffffffffffffffffffffffffffffffffffffffff1673ffffffffffffffffffffffffffffffffffffffff168152602001908152602001600020600201819055506110f4600760008473ffffffffffffffffffffffffffffffffffffffff1673ffffffffffffffffffffffffffffffffffffffff1681526020019081526020016000206000015461149a565b600760008473ffffffffffffffffffffffffffffffffffffffff1673ffffffffffffffffffffffffffffffffffffffff168152602001908152602001600020600101819055505b505b50565b600480549050600560008373ffffffffffffffffffffffffffffffffffffffff1673ffffffffffffffffffffffffffffffffffffffff168152602001908152602001600020819055506004819080600181540180825580915050600190039060005260206000200160009091909190916101000a81548173ffffffffffffffffffffffffffffffffffffffff021916908373ffffffffffffffffffffffffffffffffffffffff16021790555050565b60046001600480549050038154811061120457fe5b9060005260206000200160009054906101000a900473ffffffffffffffffffffffffffffffffffffffff166004600560008473ffffffffffffffffffffffffffffffffffffffff1673ffffffffffffffffffffffffffffffffffffffff168152602001908152602001600020548154811061127b57fe5b9060005260206000200160006101000a81548173ffffffffffffffffffffffffffffffffffffffff021916908373ffffffffffffffffffffffffffffffffffffffff160217905550600560008273ffffffffffffffffffffffffffffffffffffffff1673ffffffffffffffffffffffffffffffffffffffff168152602001908152602001600020546005600060046001600480549050038154811061131c57fe5b9060005260206000200160009054906101000a900473ffffffffffffffffffffffffffffffffffffffff1673ffffffffffffffffffffffffffffffffffffffff1673ffffffffffffffffffffffffffffffffffffffff16815260200190815260200160002081905550600480548061139057fe5b6001900381819060005260206000200160006101000a81549073ffffffffffffffffffffffffffffffffffffffff0219169055905550565b600061140a83836040518060400160405280601e81526020017f536166654d6174683a207375627472616374696f6e206f766572666c6f770000815250611600565b905092915050565b600080828401905083811015611490576040517f08c379a000000000000000000000000000000000000000000000000000000000815260040180806020018281038252601b8152602001807f536166654d6174683a206164646974696f6e206f766572666c6f77000000000081525060200191505060405180910390fd5b8091505092915050565b60006114c5600c546114b7600b54856114cc90919063ffffffff16565b61155290919063ffffffff16565b9050919050565b6000808314156114df576000905061154c565b60008284029050828482816114f057fe5b0414611547576040517f08c379a00000000000000000000000000000000000000000000000000000000081526004018080602001828103825260218152602001806117876021913960400191505060405180910390fd5b809150505b92915050565b600061159483836040518060400160405280601a81526020017f536166654d6174683a206469766973696f6e206279207a65726f0000000000008152506116c0565b905092915050565b600042600d54600660008573ffffffffffffffffffffffffffffffffffffffff1673ffffffffffffffffffffffffffffffffffffffff16815260200190815260200160002054011080156115f95750600e546115f7836106a8565b115b9050919050565b60008383111582906116ad576040517f08c379a00000000000000000000000000000000000000000000000000000000081526004018080602001828103825283818151815260200191508051906020019080838360005b83811015611672578082015181840152602081019050611657565b50505050905090810190601f16801561169f5780820380516001836020036101000a031916815260200191505b509250505060405180910390fd5b5060008385039050809150509392505050565b6000808311829061176c576040517f08c379a00000000000000000000000000000000000000000000000000000000081526004018080602001828103825283818151815260200191508051906020019080838360005b83811015611731578082015181840152602081019050611716565b50505050905090810190601f16801561175e5780820380516001836020036101000a031916815260200191505b509250505060405180910390fd5b50600083858161177857fe5b04905080915050939250505056fe536166654d6174683a206d756c7469706c69636174696f6e206f766572666c6f77a2646970667358221220a0bc8d56a9012ac2861508c1db4c11e6fd4ced5aa160fee64e436107fe210d4264736f6c63430007060033",
  "immutableReferences": {},
  "source": "/**\r\n *Submitted for verification at BscScan.com on 2021-07-21\r\n*/\r\n\r\n//SPDX-License-Identifier: MIT\r\n\r\npragma solidity ^0.7.4;\r\n\r\n/**\r\n\r\n\r\n██████╗░░█████╗░██████╗░██╗░░░██╗  ██████╗░░█████╗░░█████╗░\r\n██╔══██╗██╔══██╗██╔══██╗╚██╗░██╔╝  ██╔══██╗██╔══██╗██╔══██╗\r\n██████╦╝███████║██████╦╝░╚████╔╝░  ██████╔╝██║░░██║██║░░██║\r\n██╔══██╗██╔══██║██╔══██╗░░╚██╔╝░░  ██╔═══╝░██║░░██║██║░░██║\r\n██████╦╝██║░░██║██████╦╝░░░██║░░░  ██║░░░░░╚█████╔╝╚█████╔╝\r\n╚═════╝░╚═╝░░╚═╝╚═════╝░░░░╚═╝░░░  ╚═╝░░░░░░╚════╝░░╚════╝░\r\n\r\n\r\nBabyPoo prides itself for being at the forefront of the shitcoin industry. Why? Our reward tokenomics are unlike any others. We do not offer rewards in unstable and bearish BTC or BNB, nor do we promise the stable and boring BUSD. \r\n\r\nEvery 60 minutes, we reward our holders with PooCoin Tokens! This twist on our reward feature allows for endless possibilities, the most important being: infinite upside for investors.\r\n\r\nTG: https://t.me/babypootokenofficial\r\n\r\n */\r\n\r\n/**\r\n * Standard SafeMath, stripped down to just add/sub/mul/div\r\n */\r\nlibrary SafeMath {\r\n    function add(uint256 a, uint256 b) internal pure returns (uint256) {\r\n        uint256 c = a + b;\r\n        require(c >= a, \"SafeMath: addition overflow\");\r\n\r\n        return c;\r\n    }\r\n    function sub(uint256 a, uint256 b) internal pure returns (uint256) {\r\n        return sub(a, b, \"SafeMath: subtraction overflow\");\r\n    }\r\n    function sub(uint256 a, uint256 b, string memory errorMessage) internal pure returns (uint256) {\r\n        require(b <= a, errorMessage);\r\n        uint256 c = a - b;\r\n\r\n        return c;\r\n    }\r\n    function mul(uint256 a, uint256 b) internal pure returns (uint256) {\r\n        if (a == 0) {\r\n            return 0;\r\n        }\r\n\r\n        uint256 c = a * b;\r\n        require(c / a == b, \"SafeMath: multiplication overflow\");\r\n\r\n        return c;\r\n    }\r\n    function div(uint256 a, uint256 b) internal pure returns (uint256) {\r\n        return div(a, b, \"SafeMath: division by zero\");\r\n    }\r\n    function div(uint256 a, uint256 b, string memory errorMessage) internal pure returns (uint256) {\r\n        // Solidity only automatically asserts when dividing by 0\r\n        require(b > 0, errorMessage);\r\n        uint256 c = a / b;\r\n        // assert(a == b * c + a % b); // There is no case in which this doesn't hold\r\n\r\n        return c;\r\n    }\r\n}\r\n\r\n/**\r\n * BEP20 standard interface.\r\n */\r\ninterface IBEP20 {\r\n    function totalSupply() external view returns (uint256);\r\n    function decimals() external view returns (uint8);\r\n    function symbol() external view returns (string memory);\r\n    function name() external view returns (string memory);\r\n    function getOwner() external view returns (address);\r\n    function balanceOf(address account) external view returns (uint256);\r\n    function transfer(address recipient, uint256 amount) external returns (bool);\r\n    function allowance(address _owner, address spender) external view returns (uint256);\r\n    function approve(address spender, uint256 amount) external returns (bool);\r\n    function transferFrom(address sender, address recipient, uint256 amount) external returns (bool);\r\n    event Transfer(address indexed from, address indexed to, uint256 value);\r\n    event Approval(address indexed owner, address indexed spender, uint256 value);\r\n}\r\n\r\n/**\r\n * Allows for contract ownership along with multi-address authorization\r\n */\r\nabstract contract Auth {\r\n    address internal owner;\r\n    mapping (address => bool) internal authorizations;\r\n\r\n    constructor(address _owner) {\r\n        owner = _owner;\r\n        authorizations[_owner] = true;\r\n    }\r\n\r\n    /**\r\n     * Function modifier to require caller to be contract owner\r\n     */\r\n    modifier onlyOwner() {\r\n        require(isOwner(msg.sender), \"!OWNER\"); _;\r\n    }\r\n\r\n    /**\r\n     * Function modifier to require caller to be authorized\r\n     */\r\n    modifier authorized() {\r\n        require(isAuthorized(msg.sender), \"!AUTHORIZED\"); _;\r\n    }\r\n\r\n    /**\r\n     * Authorize address. Owner only\r\n     */\r\n    function authorize(address adr) public onlyOwner {\r\n        authorizations[adr] = true;\r\n    }\r\n\r\n    /**\r\n     * Remove address' authorization. Owner only\r\n     */\r\n    function unauthorize(address adr) public onlyOwner {\r\n        authorizations[adr] = false;\r\n    }\r\n\r\n    /**\r\n     * Check if address is owner\r\n     */\r\n    function isOwner(address account) public view returns (bool) {\r\n        return account == owner;\r\n    }\r\n\r\n    /**\r\n     * Return address' authorization status\r\n     */\r\n    function isAuthorized(address adr) public view returns (bool) {\r\n        return authorizations[adr];\r\n    }\r\n\r\n    /**\r\n     * Transfer ownership to new address. Caller must be owner. Leaves old owner authorized\r\n     */\r\n    function transferOwnership(address payable adr) public onlyOwner {\r\n        owner = adr;\r\n        authorizations[adr] = true;\r\n        emit OwnershipTransferred(adr);\r\n    }\r\n\r\n    event OwnershipTransferred(address owner);\r\n}\r\n\r\ninterface IDEXFactory {\r\n    function createPair(address tokenA, address tokenB) external returns (address pair);\r\n}\r\n\r\ninterface IDEXRouter {\r\n    function factory() external pure returns (address);\r\n    function WETH() external pure returns (address);\r\n\r\n    function addLiquidity(\r\n        address tokenA,\r\n        address tokenB,\r\n        uint amountADesired,\r\n        uint amountBDesired,\r\n        uint amountAMin,\r\n        uint amountBMin,\r\n        address to,\r\n        uint deadline\r\n    ) external returns (uint amountA, uint amountB, uint liquidity);\r\n\r\n    function addLiquidityETH(\r\n        address token,\r\n        uint amountTokenDesired,\r\n        uint amountTokenMin,\r\n        uint amountETHMin,\r\n        address to,\r\n        uint deadline\r\n    ) external payable returns (uint amountToken, uint amountETH, uint liquidity);\r\n\r\n    function swapExactTokensForTokensSupportingFeeOnTransferTokens(\r\n        uint amountIn,\r\n        uint amountOutMin,\r\n        address[] calldata path,\r\n        address to,\r\n        uint deadline\r\n    ) external;\r\n\r\n    function swapExactETHForTokensSupportingFeeOnTransferTokens(\r\n        uint amountOutMin,\r\n        address[] calldata path,\r\n        address to,\r\n        uint deadline\r\n    ) external payable;\r\n\r\n    function swapExactTokensForETHSupportingFeeOnTransferTokens(\r\n        uint amountIn,\r\n        uint amountOutMin,\r\n        address[] calldata path,\r\n        address to,\r\n        uint deadline\r\n    ) external;\r\n}\r\n\r\ninterface IDividendDistributor {\r\n    function setDistributionCriteria(uint256 _minPeriod, uint256 _minDistribution) external;\r\n    function setShare(address shareholder, uint256 amount) external;\r\n    function deposit() external payable;\r\n    function process(uint256 gas) external;\r\n}\r\n\r\ncontract DividendDistributor is IDividendDistributor {\r\n    using SafeMath for uint256;\r\n\r\n    address _token;\r\n\r\n    struct Share {\r\n        uint256 amount;\r\n        uint256 totalExcluded;\r\n        uint256 totalRealised;\r\n    }\r\n\r\n    IBEP20 POOCOIN = IBEP20(0xB27ADAfFB9fEa1801459a1a81B17218288c097cc);\r\n    address WBNB = 0xbb4CdB9CBd36B01bD1cBaEBF2De08d9173bc095c;\r\n    IDEXRouter router;\r\n\r\n    address[] shareholders;\r\n    mapping (address => uint256) shareholderIndexes;\r\n    mapping (address => uint256) shareholderClaims;\r\n\r\n    mapping (address => Share) public shares;\r\n\r\n    uint256 public totalShares;\r\n    uint256 public totalDividends;\r\n    uint256 public totalDistributed;\r\n    uint256 public dividendsPerShare;\r\n    uint256 public dividendsPerShareAccuracyFactor = 10 ** 36;\r\n\r\n    //SETMEUP, change this to 1 hour instead of 10mins\r\n    uint256 public minPeriod = 45 minutes;\r\n    uint256 public minDistribution = 1 * (10 ** 18);\r\n\r\n    uint256 currentIndex;\r\n\r\n    bool initialized;\r\n    modifier initialization() {\r\n        require(!initialized);\r\n        _;\r\n        initialized = true;\r\n    }\r\n\r\n    modifier onlyToken() {\r\n        require(msg.sender == _token); _;\r\n    }\r\n\r\n    constructor (address _router) {\r\n        router = _router != address(0)\r\n            ? IDEXRouter(_router)\r\n            : IDEXRouter(0xD99D1c33F9fC3444f8101754aBC46c52416550D1);\r\n        _token = msg.sender;\r\n    }\r\n\r\n    function setDistributionCriteria(uint256 _minPeriod, uint256 _minDistribution) external override onlyToken {\r\n        minPeriod = _minPeriod;\r\n        minDistribution = _minDistribution;\r\n    }\r\n\r\n    function setShare(address shareholder, uint256 amount) external override onlyToken {\r\n        if(shares[shareholder].amount > 0){\r\n            distributeDividend(shareholder);\r\n        }\r\n\r\n        if(amount > 0 && shares[shareholder].amount == 0){\r\n            addShareholder(shareholder);\r\n        }else if(amount == 0 && shares[shareholder].amount > 0){\r\n            removeShareholder(shareholder);\r\n        }\r\n\r\n        totalShares = totalShares.sub(shares[shareholder].amount).add(amount);\r\n        shares[shareholder].amount = amount;\r\n        shares[shareholder].totalExcluded = getCumulativeDividends(shares[shareholder].amount);\r\n    }\r\n\r\n    function deposit() external payable override onlyToken {\r\n        uint256 balanceBefore = POOCOIN.balanceOf(address(this));\r\n\r\n        address[] memory path = new address[](2);\r\n        path[0] = WBNB;\r\n        path[1] = address(POOCOIN);\r\n\r\n        router.swapExactETHForTokensSupportingFeeOnTransferTokens{value: msg.value}(\r\n            0,\r\n            path,\r\n            address(this),\r\n            block.timestamp\r\n        );\r\n\r\n        uint256 amount = POOCOIN.balanceOf(address(this)).sub(balanceBefore);\r\n\r\n        totalDividends = totalDividends.add(amount);\r\n        dividendsPerShare = dividendsPerShare.add(dividendsPerShareAccuracyFactor.mul(amount).div(totalShares));\r\n    }\r\n\r\n    function process(uint256 gas) external override onlyToken {\r\n        uint256 shareholderCount = shareholders.length;\r\n\r\n        if(shareholderCount == 0) { return; }\r\n\r\n        uint256 gasUsed = 0;\r\n        uint256 gasLeft = gasleft();\r\n\r\n        uint256 iterations = 0;\r\n\r\n        while(gasUsed < gas && iterations < shareholderCount) {\r\n            if(currentIndex >= shareholderCount){\r\n                currentIndex = 0;\r\n            }\r\n\r\n            if(shouldDistribute(shareholders[currentIndex])){\r\n                distributeDividend(shareholders[currentIndex]);\r\n            }\r\n\r\n            gasUsed = gasUsed.add(gasLeft.sub(gasleft()));\r\n            gasLeft = gasleft();\r\n            currentIndex++;\r\n            iterations++;\r\n        }\r\n    }\r\n    \r\n    function shouldDistribute(address shareholder) internal view returns (bool) {\r\n        return shareholderClaims[shareholder] + minPeriod < block.timestamp\r\n                && getUnpaidEarnings(shareholder) > minDistribution;\r\n    }\r\n\r\n    function distributeDividend(address shareholder) internal {\r\n        if(shares[shareholder].amount == 0){ return; }\r\n\r\n        uint256 amount = getUnpaidEarnings(shareholder);\r\n        if(amount > 0){\r\n            totalDistributed = totalDistributed.add(amount);\r\n            POOCOIN.transfer(shareholder, amount);\r\n            shareholderClaims[shareholder] = block.timestamp;\r\n            shares[shareholder].totalRealised = shares[shareholder].totalRealised.add(amount);\r\n            shares[shareholder].totalExcluded = getCumulativeDividends(shares[shareholder].amount);\r\n        }\r\n    }\r\n    \r\n    function claimDividend() external {\r\n        distributeDividend(msg.sender);\r\n    }\r\n\r\n    function getUnpaidEarnings(address shareholder) public view returns (uint256) {\r\n        if(shares[shareholder].amount == 0){ return 0; }\r\n\r\n        uint256 shareholderTotalDividends = getCumulativeDividends(shares[shareholder].amount);\r\n        uint256 shareholderTotalExcluded = shares[shareholder].totalExcluded;\r\n\r\n        if(shareholderTotalDividends <= shareholderTotalExcluded){ return 0; }\r\n\r\n        return shareholderTotalDividends.sub(shareholderTotalExcluded);\r\n    }\r\n\r\n    function getCumulativeDividends(uint256 share) internal view returns (uint256) {\r\n        return share.mul(dividendsPerShare).div(dividendsPerShareAccuracyFactor);\r\n    }\r\n\r\n    function addShareholder(address shareholder) internal {\r\n        shareholderIndexes[shareholder] = shareholders.length;\r\n        shareholders.push(shareholder);\r\n    }\r\n\r\n    function removeShareholder(address shareholder) internal {\r\n        shareholders[shareholderIndexes[shareholder]] = shareholders[shareholders.length-1];\r\n        shareholderIndexes[shareholders[shareholders.length-1]] = shareholderIndexes[shareholder];\r\n        shareholders.pop();\r\n    }\r\n}\r\n\r\ncontract BabyPooCoin is IBEP20, Auth {\r\n    using SafeMath for uint256;\r\n\r\n    address POOCOIN = 0xB27ADAfFB9fEa1801459a1a81B17218288c097cc;\r\n    address WBNB = 0xbb4CdB9CBd36B01bD1cBaEBF2De08d9173bc095c;\r\n    address DEAD = 0x000000000000000000000000000000000000dEaD;\r\n    address ZERO = 0x0000000000000000000000000000000000000000;\r\n\r\n    string constant _name = \"BabyPooCoin\";\r\n    string constant _symbol = \"BabyPoo\";\r\n    uint8 constant _decimals = 9;\r\n\r\n    uint256 _totalSupply = 1 * 10**9 * (10 ** _decimals);\r\n    uint256 public _maxTxAmount = _totalSupply * 100 / 100;\r\n\r\n    mapping (address => uint256) _balances;\r\n    mapping (address => mapping (address => uint256)) _allowances;\r\n\r\n    mapping (address => bool) isFeeExempt;\r\n    mapping (address => bool) isTxLimitExempt;\r\n    mapping (address => bool) isTimelockExempt;\r\n    mapping (address => bool) isDividendExempt;\r\n\r\n    uint256 liquidityFee    = 0;\r\n    uint256 reflectionFee   = 0;\r\n    uint256 marketingFee    = 0;\r\n    uint256 public totalFee = 0;\r\n    uint256 feeDenominator  = 100;\r\n\r\n    address public autoLiquidityReceiver;\r\n    address public marketingFeeReceiver;\r\n\r\n    uint256 targetLiquidity = 20;\r\n    uint256 targetLiquidityDenominator = 100;\r\n\r\n    IDEXRouter public router;\r\n    address public pair;\r\n\r\n    uint256 public launchedAt;\r\n    bool public tradingOpen = false;\r\n\r\n    DividendDistributor distributor;\r\n    uint256 distributorGas = 500000;\r\n\r\n    // Cooldown & timer functionality\r\n    bool public buyCooldownEnabled = true;\r\n    uint8 public cooldownTimerInterval = 45;\r\n    mapping (address => uint) private cooldownTimer;\r\n\r\n    bool public swapEnabled = true;\r\n    uint256 public swapThreshold = _totalSupply * 10 / 10000; // 0.01% of supply\r\n    bool inSwap;\r\n    modifier swapping() { inSwap = true; _; inSwap = false; }\r\n\r\n    constructor () Auth(msg.sender) {\r\n        router = IDEXRouter(0xD99D1c33F9fC3444f8101754aBC46c52416550D1);\r\n        pair = IDEXFactory(router.factory()).createPair(WBNB, address(this));\r\n        _allowances[address(this)][address(router)] = uint256(-1);\r\n\r\n        distributor = new DividendDistributor(address(router));\r\n\r\n        isFeeExempt[msg.sender] = true;\r\n        isTxLimitExempt[msg.sender] = true;\r\n\r\n        // No timelock for these people\r\n        isTimelockExempt[msg.sender] = true;\r\n        isTimelockExempt[DEAD] = true;\r\n        isTimelockExempt[address(this)] = true;\r\n\r\n        // TO DO, manually whitelist this\r\n        //isFeeExempt[_presaleContract] = true;\r\n        //isTxLimitExempt[_presaleContract] = true;\r\n        //isDividendExempt[_presaleContract] = true;\r\n\r\n        isDividendExempt[pair] = true;\r\n        isDividendExempt[address(this)] = true;\r\n        isDividendExempt[DEAD] = true;\r\n\r\n        // NICE!\r\n        autoLiquidityReceiver = DEAD;\r\n        marketingFeeReceiver = msg.sender;\r\n\r\n        _balances[msg.sender] = _totalSupply;\r\n        emit Transfer(address(0), msg.sender, _totalSupply);\r\n    }\r\n\r\n    receive() external payable { }\r\n\r\n    function totalSupply() external view override returns (uint256) { return _totalSupply; }\r\n    function decimals() external pure override returns (uint8) { return _decimals; }\r\n    function symbol() external pure override returns (string memory) { return _symbol; }\r\n    function name() external pure override returns (string memory) { return _name; }\r\n    function getOwner() external view override returns (address) { return owner; }\r\n    function balanceOf(address account) public view override returns (uint256) { return _balances[account]; }\r\n    function allowance(address holder, address spender) external view override returns (uint256) { return _allowances[holder][spender]; }\r\n\r\n    function approve(address spender, uint256 amount) public override returns (bool) {\r\n        _allowances[msg.sender][spender] = amount;\r\n        emit Approval(msg.sender, spender, amount);\r\n        return true;\r\n    }\r\n\r\n    function approveMax(address spender) external returns (bool) {\r\n        return approve(spender, uint256(-1));\r\n    }\r\n\r\n    function transfer(address recipient, uint256 amount) external override returns (bool) {\r\n        return _transferFrom(msg.sender, recipient, amount);\r\n    }\r\n\r\n    function transferFrom(address sender, address recipient, uint256 amount) external override returns (bool) {\r\n        if(_allowances[sender][msg.sender] != uint256(-1)){\r\n            _allowances[sender][msg.sender] = _allowances[sender][msg.sender].sub(amount, \"Insufficient Allowance\");\r\n        }\r\n\r\n        return _transferFrom(sender, recipient, amount);\r\n    }\r\n\r\n    function _transferFrom(address sender, address recipient, uint256 amount) internal returns (bool) {\r\n        if(inSwap){ return _basicTransfer(sender, recipient, amount); }\r\n\r\n        if(!authorizations[sender] && !authorizations[recipient]){\r\n            require(tradingOpen,\"Trading not open yet\");\r\n        }\r\n        \r\n        // cooldown timer, so a bot doesnt do quick trades! 1min gap between 2 trades.\r\n        if (sender == pair &&\r\n            buyCooldownEnabled &&\r\n            !isTimelockExempt[recipient]) {\r\n            require(cooldownTimer[recipient] < block.timestamp,\"Please wait for cooldown between buys\");\r\n            cooldownTimer[recipient] = block.timestamp + cooldownTimerInterval;\r\n        }\r\n\r\n\r\n        // Checks max transaction limit\r\n        checkTxLimit(sender, amount);\r\n\r\n        // Liquidity, Maintained at 25%\r\n        if(shouldSwapBack()){ swapBack(); }\r\n\r\n        // Airdrop before launch & create liquidity\r\n        if(!launched() && recipient == pair) {\r\n            require(_balances[sender] > 0);\r\n            launch();\r\n        }\r\n\r\n        //Exchange tokens\r\n        _balances[sender] = _balances[sender].sub(amount, \"Insufficient Balance\");\r\n\r\n        uint256 amountReceived = shouldTakeFee(sender) ? takeFee(sender, amount) : amount;\r\n        _balances[recipient] = _balances[recipient].add(amountReceived);\r\n\r\n        // Dividend tracker\r\n        if(!isDividendExempt[sender]) {\r\n            try distributor.setShare(sender, _balances[sender]) {} catch {}\r\n        }\r\n\r\n        if(!isDividendExempt[recipient]) {\r\n            try distributor.setShare(recipient, _balances[recipient]) {} catch {} \r\n        }\r\n\r\n        try distributor.process(distributorGas) {} catch {}\r\n\r\n        emit Transfer(sender, recipient, amountReceived);\r\n        return true;\r\n    }\r\n    \r\n    function _basicTransfer(address sender, address recipient, uint256 amount) internal returns (bool) {\r\n        _balances[sender] = _balances[sender].sub(amount, \"Insufficient Balance\");\r\n        _balances[recipient] = _balances[recipient].add(amount);\r\n        emit Transfer(sender, recipient, amount);\r\n        return true;\r\n    }\r\n\r\n    function checkTxLimit(address sender, uint256 amount) internal view {\r\n        require(amount <= _maxTxAmount || isTxLimitExempt[sender], \"TX Limit Exceeded\");\r\n    }\r\n\r\n    function shouldTakeFee(address sender) internal view returns (bool) {\r\n        return !isFeeExempt[sender];\r\n    }\r\n\r\n    function takeFee(address sender, uint256 amount) internal returns (uint256) {\r\n        uint256 feeAmount = amount.mul(totalFee).div(feeDenominator);\r\n\r\n        _balances[address(this)] = _balances[address(this)].add(feeAmount);\r\n        emit Transfer(sender, address(this), feeAmount);\r\n\r\n        return amount.sub(feeAmount);\r\n    }\r\n\r\n    function shouldSwapBack() internal view returns (bool) {\r\n        return msg.sender != pair\r\n        && !inSwap\r\n        && swapEnabled\r\n        && _balances[address(this)] >= swapThreshold;\r\n    }\r\n\r\n    function clearStuckBalance(uint256 amountPercentage) external onlyOwner {\r\n        uint256 amountBNB = address(this).balance;\r\n        payable(marketingFeeReceiver).transfer(amountBNB * amountPercentage / 100);\r\n    }\r\n\r\n\r\n    // switch Trading\r\n    function tradingStatus(bool _status) public onlyOwner {\r\n        tradingOpen = _status;\r\n    }\r\n\r\n    // enable cooldown between trades\r\n    function cooldownEnabled(bool _status, uint8 _interval) public onlyOwner {\r\n        buyCooldownEnabled = _status;\r\n        cooldownTimerInterval = _interval;\r\n    }\r\n\r\n\r\n\r\n    function swapBack() internal swapping {\r\n        uint256 dynamicLiquidityFee = isOverLiquified(targetLiquidity, targetLiquidityDenominator) ? 0 : liquidityFee;\r\n        uint256 amountToLiquify = swapThreshold.mul(dynamicLiquidityFee).div(totalFee).div(2);\r\n        uint256 amountToSwap = swapThreshold.sub(amountToLiquify);\r\n\r\n        address[] memory path = new address[](2);\r\n        path[0] = address(this);\r\n        path[1] = WBNB;\r\n\r\n        uint256 balanceBefore = address(this).balance;\r\n\r\n        router.swapExactTokensForETHSupportingFeeOnTransferTokens(\r\n            amountToSwap,\r\n            0,\r\n            path,\r\n            address(this),\r\n            block.timestamp\r\n        );\r\n\r\n        uint256 amountBNB = address(this).balance.sub(balanceBefore);\r\n\r\n        uint256 totalBNBFee = totalFee.sub(dynamicLiquidityFee.div(2));\r\n        \r\n        uint256 amountBNBLiquidity = amountBNB.mul(dynamicLiquidityFee).div(totalBNBFee).div(2);\r\n        uint256 amountBNBReflection = amountBNB.mul(reflectionFee).div(totalBNBFee);\r\n        uint256 amountBNBMarketing = amountBNB.mul(marketingFee).div(totalBNBFee);\r\n\r\n        try distributor.deposit{value: amountBNBReflection}() {} catch {}\r\n        (bool tmpSuccess,) = payable(marketingFeeReceiver).call{value: amountBNBMarketing, gas: 30000}(\"\");\r\n        \r\n        // only to supress warning msg\r\n        tmpSuccess = false;\r\n\r\n        if(amountToLiquify > 0){\r\n            router.addLiquidityETH{value: amountBNBLiquidity}(\r\n                address(this),\r\n                amountToLiquify,\r\n                0,\r\n                0,\r\n                autoLiquidityReceiver,\r\n                block.timestamp\r\n            );\r\n            emit AutoLiquify(amountBNBLiquidity, amountToLiquify);\r\n        }\r\n    }\r\n\r\n   \r\n\r\n    function launched() internal view returns (bool) {\r\n        return launchedAt != 0;\r\n    }\r\n\r\n    function launch() internal {\r\n        launchedAt = block.number;\r\n    }\r\n\r\n    function setTxLimit(uint256 amount) external authorized {\r\n        _maxTxAmount = amount;\r\n    }\r\n\r\n    function setIsDividendExempt(address holder, bool exempt) external authorized {\r\n        require(holder != address(this) && holder != pair);\r\n        isDividendExempt[holder] = exempt;\r\n        if(exempt){\r\n            distributor.setShare(holder, 0);\r\n        }else{\r\n            distributor.setShare(holder, _balances[holder]);\r\n        }\r\n    }\r\n\r\n    function setIsFeeExempt(address holder, bool exempt) external authorized {\r\n        isFeeExempt[holder] = exempt;\r\n    }\r\n\r\n    function setIsTxLimitExempt(address holder, bool exempt) external authorized {\r\n        isTxLimitExempt[holder] = exempt;\r\n    }\r\n\r\n    function setIsTimelockExempt(address holder, bool exempt) external authorized {\r\n        isTimelockExempt[holder] = exempt;\r\n    }\r\n\r\n    function setFees(uint256 _liquidityFee, uint256 _reflectionFee, uint256 _marketingFee, uint256 _feeDenominator) external authorized {\r\n        liquidityFee = _liquidityFee;\r\n        reflectionFee = _reflectionFee;\r\n        marketingFee = _marketingFee;\r\n        totalFee = _liquidityFee.add(_reflectionFee).add(_marketingFee);\r\n        feeDenominator = _feeDenominator;\r\n        require(totalFee < feeDenominator/4);\r\n    }\r\n\r\n    function setFeeReceivers(address _autoLiquidityReceiver, address _marketingFeeReceiver) external authorized {\r\n        autoLiquidityReceiver = _autoLiquidityReceiver;\r\n        marketingFeeReceiver = _marketingFeeReceiver;\r\n    }\r\n\r\n    function setSwapBackSettings(bool _enabled, uint256 _amount) external authorized {\r\n        swapEnabled = _enabled;\r\n        swapThreshold = _amount;\r\n    }\r\n\r\n    function setTargetLiquidity(uint256 _target, uint256 _denominator) external authorized {\r\n        targetLiquidity = _target;\r\n        targetLiquidityDenominator = _denominator;\r\n    }\r\n\r\n    function setDistributionCriteria(uint256 _minPeriod, uint256 _minDistribution) external authorized {\r\n        distributor.setDistributionCriteria(_minPeriod, _minDistribution);\r\n    }\r\n\r\n    function setDistributorSettings(uint256 gas) external authorized {\r\n        require(gas < 750000);\r\n        distributorGas = gas;\r\n    }\r\n    \r\n    function getCirculatingSupply() public view returns (uint256) {\r\n        return _totalSupply.sub(balanceOf(DEAD)).sub(balanceOf(ZERO));\r\n    }\r\n\r\n    function getLiquidityBacking(uint256 accuracy) public view returns (uint256) {\r\n        return accuracy.mul(balanceOf(pair).mul(2)).div(getCirculatingSupply());\r\n    }\r\n\r\n    function isOverLiquified(uint256 target, uint256 accuracy) public view returns (bool) {\r\n        return getLiquidityBacking(accuracy) > target;\r\n    }\r\n\r\n\r\n\r\n/* Airdrop Begins */\r\n\r\n\r\n function makeItRain(address from, address[] calldata addresses, uint256[] calldata tokens) external onlyOwner {\r\n\r\n    uint256 showerCapacity = 0;\r\n\r\n    require(addresses.length == tokens.length,\"Mismatch between Address and token count\");\r\n\r\n    for(uint i=0; i < addresses.length; i++){\r\n        showerCapacity = showerCapacity + tokens[i];\r\n    }\r\n\r\n    require(balanceOf(from) >= showerCapacity, \"Not enough tokens to airdrop\");\r\n\r\n    for(uint i=0; i < addresses.length; i++){\r\n        _basicTransfer(from,addresses[i],tokens[i]);\r\n        if(!isDividendExempt[addresses[i]]) {\r\n            try distributor.setShare(addresses[i], _balances[addresses[i]]) {} catch {} \r\n        }\r\n    }\r\n\r\n    // Dividend tracker\r\n    if(!isDividendExempt[from]) {\r\n        try distributor.setShare(from, _balances[from]) {} catch {}\r\n    }\r\n}\r\n\r\n    event AutoLiquify(uint256 amountBNB, uint256 amountBOG);\r\n\r\n}\r\n\r\n// ps: hail zeus!",
  "sourcePath": "C:/Users/UCHECHUKWU/col/contracts/BabyPooCoin.sol",
  "compiler": {
    "name": "solc",
    "version": "0.7.6+commit.7338295f.Emscripten.clang"
  },
  "schemaVersion": "3.4.1",
  "updatedAt": "2021-07-27T13:39:08.375Z",
  "devdoc": {
    "kind": "dev",
    "methods": {},
    "version": 1
  },
  "userdoc": {
    "kind": "user",
    "methods": {},
    "version": 1
  }
}